{
  "_format": "hh-sol-artifact-1",
  "contractName": "Types1",
  "sourceName": "contracts/Types.sol",
  "abi": [
    {
      "inputs": [],
      "name": "boolean1",
      "outputs": [
        {
          "internalType": "bool",
          "name": "",
          "type": "bool"
        }
      ],
      "stateMutability": "view",
      "type": "function"
    },
    {
      "inputs": [],
      "name": "boolean2",
      "outputs": [
        {
          "internalType": "bool",
          "name": "",
          "type": "bool"
        }
      ],
      "stateMutability": "view",
      "type": "function"
    },
    {
      "inputs": [],
      "name": "myAddress",
      "outputs": [
        {
          "internalType": "address",
          "name": "",
          "type": "address"
        }
      ],
      "stateMutability": "view",
      "type": "function"
    },
    {
      "inputs": [],
      "name": "myBytes32",
      "outputs": [
        {
          "internalType": "bytes32",
          "name": "",
          "type": "bytes32"
        }
      ],
      "stateMutability": "view",
      "type": "function"
    },
    {
      "inputs": [],
      "name": "myInt1",
      "outputs": [
        {
          "internalType": "int256",
          "name": "",
          "type": "int256"
        }
      ],
      "stateMutability": "view",
      "type": "function"
    },
    {
      "inputs": [],
      "name": "myInt2",
      "outputs": [
        {
          "internalType": "int256",
          "name": "",
          "type": "int256"
        }
      ],
      "stateMutability": "view",
      "type": "function"
    },
    {
      "inputs": [],
      "name": "myInt3",
      "outputs": [
        {
          "internalType": "int256",
          "name": "",
          "type": "int256"
        }
      ],
      "stateMutability": "view",
      "type": "function"
    },
    {
      "inputs": [],
      "name": "myInt4",
      "outputs": [
        {
          "internalType": "int256",
          "name": "",
          "type": "int256"
        }
      ],
      "stateMutability": "view",
      "type": "function"
    },
    {
      "inputs": [],
      "name": "myInt5",
      "outputs": [
        {
          "internalType": "uint8",
          "name": "",
          "type": "uint8"
        }
      ],
      "stateMutability": "view",
      "type": "function"
    },
    {
      "inputs": [],
      "name": "myInt6",
      "outputs": [
        {
          "internalType": "uint16",
          "name": "",
          "type": "uint16"
        }
      ],
      "stateMutability": "view",
      "type": "function"
    },
    {
      "inputs": [],
      "name": "myString",
      "outputs": [
        {
          "internalType": "string",
          "name": "",
          "type": "string"
        }
      ],
      "stateMutability": "view",
      "type": "function"
    },
    {
      "inputs": [],
      "name": "myUint1",
      "outputs": [
        {
          "internalType": "uint256",
          "name": "",
          "type": "uint256"
        }
      ],
      "stateMutability": "view",
      "type": "function"
    },
    {
      "inputs": [],
      "name": "myUint2",
      "outputs": [
        {
          "internalType": "uint256",
          "name": "",
          "type": "uint256"
        }
      ],
      "stateMutability": "view",
      "type": "function"
    },
    {
      "inputs": [],
      "name": "myUint3",
      "outputs": [
        {
          "internalType": "uint256",
          "name": "",
          "type": "uint256"
        }
      ],
      "stateMutability": "view",
      "type": "function"
    },
    {
      "inputs": [],
      "name": "myUint4",
      "outputs": [
        {
          "internalType": "uint8",
          "name": "",
          "type": "uint8"
        }
      ],
      "stateMutability": "view",
      "type": "function"
    },
    {
      "inputs": [],
      "name": "myUint5",
      "outputs": [
        {
          "internalType": "uint16",
          "name": "",
          "type": "uint16"
        }
      ],
      "stateMutability": "view",
      "type": "function"
    }
  ],
  "bytecode": "0x608060405260016000806101000a81548160ff0219169083151502179055506001805560016003556001600460006101000a81548160ff021916908360ff1602179055506001600460016101000a81548161ffff021916908361ffff16021790555060016005557fffffffffffffffffffffffffffffffffffffffffffffffffffffffffffffffff60075560016008556001600960006101000a81548160ff021916908360ff1602179055506001600960016101000a81548161ffff021916908361ffff1602179055506040518060400160405280600981526020017f4d7920737472696e670000000000000000000000000000000000000000000000815250600a90816200010f919062000417565b507f4d79204279746573203332000000000000000000000000000000000000000000600b557352bc44d5378309ee2abf1539bf71de1b7d7be3b5600c60006101000a81548173ffffffffffffffffffffffffffffffffffffffff021916908373ffffffffffffffffffffffffffffffffffffffff1602179055503480156200019657600080fd5b50620004fe565b600081519050919050565b7f4e487b7100000000000000000000000000000000000000000000000000000000600052604160045260246000fd5b7f4e487b7100000000000000000000000000000000000000000000000000000000600052602260045260246000fd5b600060028204905060018216806200021f57607f821691505b602082108103620002355762000234620001d7565b5b50919050565b60008190508160005260206000209050919050565b60006020601f8301049050919050565b600082821b905092915050565b6000600883026200029f7fffffffffffffffffffffffffffffffffffffffffffffffffffffffffffffffff8262000260565b620002ab868362000260565b95508019841693508086168417925050509392505050565b6000819050919050565b6000819050919050565b6000620002f8620002f2620002ec84620002c3565b620002cd565b620002c3565b9050919050565b6000819050919050565b6200031483620002d7565b6200032c6200032382620002ff565b8484546200026d565b825550505050565b600090565b6200034362000334565b6200035081848462000309565b505050565b5b8181101562000378576200036c60008262000339565b60018101905062000356565b5050565b601f821115620003c75762000391816200023b565b6200039c8462000250565b81016020851015620003ac578190505b620003c4620003bb8562000250565b83018262000355565b50505b505050565b600082821c905092915050565b6000620003ec60001984600802620003cc565b1980831691505092915050565b6000620004078383620003d9565b9150826002028217905092915050565b62000422826200019d565b67ffffffffffffffff8111156200043e576200043d620001a8565b5b6200044a825462000206565b620004578282856200037c565b600060209050601f8311600181146200048f57600084156200047a578287015190505b620004868582620003f9565b865550620004f6565b601f1984166200049f866200023b565b60005b82811015620004c957848901518255600182019150602085019450602081019050620004a2565b86831015620004e95784890151620004e5601f891682620003d9565b8355505b6001600288020188555050505b505050505050565b610720806200050e6000396000f3fe608060405234801561001057600080fd5b50600436106101005760003560e01c8063aa9cc77511610097578063d80b1d3711610066578063d80b1d371461026d578063da0a31901461028b578063f28e60f7146102a9578063ffd679de146102c757610100565b8063aa9cc775146101f5578063b04d939714610213578063ce0e15c814610231578063d7353c6e1461024f57610100565b806341d35ac2116100d357806341d35ac21461017d578063492bfa181461019b5780634b3e7e0c146101b95780639cd6e664146101d757610100565b80631a818054146101055780632372bccd1461012357806326b85ee1146101415780632c84a0431461015f575b600080fd5b61010d6102e5565b60405161011a9190610456565b60405180910390f35b61012b6102f6565b604051610138919061048a565b60405180910390f35b6101496102fc565b60405161015691906104e6565b60405180910390f35b610167610322565b604051610174919061048a565b60405180910390f35b610185610328565b604051610192919061051a565b60405180910390f35b6101a361032e565b6040516101b091906105c5565b60405180910390f35b6101c16103bc565b6040516101ce9190610600565b60405180910390f35b6101df6103c2565b6040516101ec919061048a565b60405180910390f35b6101fd6103c8565b60405161020a919061051a565b60405180910390f35b61021b6103ce565b6040516102289190610638565b60405180910390f35b6102396103e2565b604051610246919061051a565b60405180910390f35b6102576103e8565b604051610264919061048a565b60405180910390f35b6102756103ee565b6040516102829190610456565b60405180910390f35b610293610401565b6040516102a0919061066f565b60405180910390f35b6102b1610414565b6040516102be919061066f565b60405180910390f35b6102cf610427565b6040516102dc9190610638565b60405180910390f35b60008054906101000a900460ff1681565b60065481565b600c60009054906101000a900473ffffffffffffffffffffffffffffffffffffffff1681565b60055481565b60015481565b600a805461033b906106b9565b80601f0160208091040260200160405190810160405280929190818152602001828054610367906106b9565b80156103b45780601f10610389576101008083540402835291602001916103b4565b820191906000526020600020905b81548152906001019060200180831161039757829003601f168201915b505050505081565b600b5481565b60085481565b60025481565b600460019054906101000a900461ffff1681565b60035481565b60075481565b600060019054906101000a900460ff1681565b600460009054906101000a900460ff1681565b600960009054906101000a900460ff1681565b600960019054906101000a900461ffff1681565b60008115159050919050565b6104508161043b565b82525050565b600060208201905061046b6000830184610447565b92915050565b6000819050919050565b61048481610471565b82525050565b600060208201905061049f600083018461047b565b92915050565b600073ffffffffffffffffffffffffffffffffffffffff82169050919050565b60006104d0826104a5565b9050919050565b6104e0816104c5565b82525050565b60006020820190506104fb60008301846104d7565b92915050565b6000819050919050565b61051481610501565b82525050565b600060208201905061052f600083018461050b565b92915050565b600081519050919050565b600082825260208201905092915050565b60005b8381101561056f578082015181840152602081019050610554565b60008484015250505050565b6000601f19601f8301169050919050565b600061059782610535565b6105a18185610540565b93506105b1818560208601610551565b6105ba8161057b565b840191505092915050565b600060208201905081810360008301526105df818461058c565b905092915050565b6000819050919050565b6105fa816105e7565b82525050565b600060208201905061061560008301846105f1565b92915050565b600061ffff82169050919050565b6106328161061b565b82525050565b600060208201905061064d6000830184610629565b92915050565b600060ff82169050919050565b61066981610653565b82525050565b60006020820190506106846000830184610660565b92915050565b7f4e487b7100000000000000000000000000000000000000000000000000000000600052602260045260246000fd5b600060028204905060018216806106d157607f821691505b6020821081036106e4576106e361068a565b5b5091905056fea2646970667358221220be6c34c79b74ce69f11b3e241a028be3aa64e5ddf983d15aba3567b93f9ea2bd64736f6c63430008130033",
  "linkReferences": {},
  "deployedLinkReferences": {}
}